{
  "_format": "hh-sol-artifact-1",
  "contractName": "BlockPages",
  "sourceName": "contracts/BlockPages.sol",
  "abi": [
    {
      "inputs": [],
      "stateMutability": "nonpayable",
      "type": "constructor"
    },
    {
      "anonymous": false,
      "inputs": [
        {
          "indexed": true,
          "internalType": "address",
          "name": "wallet",
          "type": "address"
        },
        {
          "indexed": false,
          "internalType": "uint256",
          "name": "flaggedCount",
          "type": "uint256"
        }
      ],
      "name": "WalletFlagged",
      "type": "event"
    },
    {
      "anonymous": false,
      "inputs": [
        {
          "indexed": true,
          "internalType": "address",
          "name": "wallet",
          "type": "address"
        },
        {
          "indexed": false,
          "internalType": "uint8",
          "name": "rating",
          "type": "uint8"
        }
      ],
      "name": "WalletRated",
      "type": "event"
    },
    {
      "inputs": [
        {
          "internalType": "address",
          "name": "_wallet",
          "type": "address"
        }
      ],
      "name": "flagWallet",
      "outputs": [],
      "stateMutability": "nonpayable",
      "type": "function"
    },
    {
      "inputs": [
        {
          "internalType": "address",
          "name": "_wallet",
          "type": "address"
        }
      ],
      "name": "getWalletFlaggedCount",
      "outputs": [
        {
          "internalType": "uint256",
          "name": "",
          "type": "uint256"
        }
      ],
      "stateMutability": "view",
      "type": "function"
    },
    {
      "inputs": [
        {
          "internalType": "address",
          "name": "_wallet",
          "type": "address"
        }
      ],
      "name": "getWalletInfo",
      "outputs": [
        {
          "components": [
            {
              "internalType": "address",
              "name": "walletAddress",
              "type": "address"
            },
            {
              "internalType": "uint256",
              "name": "flaggedCount",
              "type": "uint256"
            },
            {
              "internalType": "uint8",
              "name": "rating",
              "type": "uint8"
            }
          ],
          "internalType": "struct BlockPages.Wallet",
          "name": "",
          "type": "tuple"
        }
      ],
      "stateMutability": "view",
      "type": "function"
    },
    {
      "inputs": [
        {
          "internalType": "address",
          "name": "_wallet",
          "type": "address"
        }
      ],
      "name": "getWalletRating",
      "outputs": [
        {
          "internalType": "uint8",
          "name": "",
          "type": "uint8"
        }
      ],
      "stateMutability": "view",
      "type": "function"
    },
    {
      "inputs": [],
      "name": "owner",
      "outputs": [
        {
          "internalType": "address",
          "name": "",
          "type": "address"
        }
      ],
      "stateMutability": "view",
      "type": "function"
    },
    {
      "inputs": [
        {
          "internalType": "address",
          "name": "_wallet",
          "type": "address"
        },
        {
          "internalType": "uint8",
          "name": "_rating",
          "type": "uint8"
        }
      ],
      "name": "rateWallet",
      "outputs": [],
      "stateMutability": "nonpayable",
      "type": "function"
    },
    {
      "inputs": [
        {
          "internalType": "address",
          "name": "",
          "type": "address"
        }
      ],
      "name": "wallets",
      "outputs": [
        {
          "internalType": "address",
          "name": "walletAddress",
          "type": "address"
        },
        {
          "internalType": "uint256",
          "name": "flaggedCount",
          "type": "uint256"
        },
        {
          "internalType": "uint8",
          "name": "rating",
          "type": "uint8"
        }
      ],
      "stateMutability": "view",
      "type": "function"
    }
  ],
  "bytecode": "0x6080604052348015600f57600080fd5b5033600160006101000a81548173ffffffffffffffffffffffffffffffffffffffff021916908373ffffffffffffffffffffffffffffffffffffffff160217905550610ec5806100606000396000f3fe608060405234801561001057600080fd5b506004361061007d5760003560e01c80638da5cb5b1161005b5780638da5cb5b14610100578063ad3065f51461011e578063f2b388c41461014e578063fd3c8b071461016a5761007d565b80636fe075e9146100825780637d5c19141461009e57806389b08f11146100ce575b600080fd5b61009c60048036038101906100979190610a1c565b61019a565b005b6100b860048036038101906100b39190610a1c565b6104d0565b6040516100c59190610acf565b60405180910390f35b6100e860048036038101906100e39190610a1c565b6105a5565b6040516100f793929190610b17565b60405180910390f35b6101086105fc565b6040516101159190610b4e565b60405180910390f35b61013860048036038101906101339190610a1c565b610622565b6040516101459190610b69565b60405180910390f35b61016860048036038101906101639190610bb0565b61066d565b005b610184600480360381019061017f9190610a1c565b610927565b6040516101919190610bf0565b60405180910390f35b80600160009054906101000a900473ffffffffffffffffffffffffffffffffffffffff1673ffffffffffffffffffffffffffffffffffffffff163373ffffffffffffffffffffffffffffffffffffffff16148061022257508073ffffffffffffffffffffffffffffffffffffffff163373ffffffffffffffffffffffffffffffffffffffff16145b610261576040517f08c379a000000000000000000000000000000000000000000000000000000000815260040161025890610c8e565b60405180910390fd5b600073ffffffffffffffffffffffffffffffffffffffff168273ffffffffffffffffffffffffffffffffffffffff16036102d0576040517f08c379a00000000000000000000000000000000000000000000000000000000081526004016102c790610cfa565b60405180910390fd5b600073ffffffffffffffffffffffffffffffffffffffff166000808473ffffffffffffffffffffffffffffffffffffffff1673ffffffffffffffffffffffffffffffffffffffff16815260200190815260200160002060000160009054906101000a900473ffffffffffffffffffffffffffffffffffffffff1673ffffffffffffffffffffffffffffffffffffffff16036103e657816000808473ffffffffffffffffffffffffffffffffffffffff1673ffffffffffffffffffffffffffffffffffffffff16815260200190815260200160002060000160006101000a81548173ffffffffffffffffffffffffffffffffffffffff021916908373ffffffffffffffffffffffffffffffffffffffff1602179055505b6000808373ffffffffffffffffffffffffffffffffffffffff1673ffffffffffffffffffffffffffffffffffffffff168152602001908152602001600020600101600081548092919061043890610d49565b91905055508173ffffffffffffffffffffffffffffffffffffffff167ffe1fd7a693875aafd28081498c64caabab71936153c688e5169c310f6d95c74b6000808573ffffffffffffffffffffffffffffffffffffffff1673ffffffffffffffffffffffffffffffffffffffff168152602001908152602001600020600101546040516104c49190610b69565b60405180910390a25050565b6104d861097f565b6000808373ffffffffffffffffffffffffffffffffffffffff1673ffffffffffffffffffffffffffffffffffffffff1681526020019081526020016000206040518060600160405290816000820160009054906101000a900473ffffffffffffffffffffffffffffffffffffffff1673ffffffffffffffffffffffffffffffffffffffff1673ffffffffffffffffffffffffffffffffffffffff168152602001600182015481526020016002820160009054906101000a900460ff1660ff1660ff16815250509050919050565b60006020528060005260406000206000915090508060000160009054906101000a900473ffffffffffffffffffffffffffffffffffffffff16908060010154908060020160009054906101000a900460ff16905083565b600160009054906101000a900473ffffffffffffffffffffffffffffffffffffffff1681565b60008060008373ffffffffffffffffffffffffffffffffffffffff1673ffffffffffffffffffffffffffffffffffffffff168152602001908152602001600020600101549050919050565b600160009054906101000a900473ffffffffffffffffffffffffffffffffffffffff1673ffffffffffffffffffffffffffffffffffffffff163373ffffffffffffffffffffffffffffffffffffffff16146106fd576040517f08c379a00000000000000000000000000000000000000000000000000000000081526004016106f490610e03565b60405180910390fd5b81600160009054906101000a900473ffffffffffffffffffffffffffffffffffffffff1673ffffffffffffffffffffffffffffffffffffffff163373ffffffffffffffffffffffffffffffffffffffff16148061078557508073ffffffffffffffffffffffffffffffffffffffff163373ffffffffffffffffffffffffffffffffffffffff16145b6107c4576040517f08c379a00000000000000000000000000000000000000000000000000000000081526004016107bb90610c8e565b60405180910390fd5b600073ffffffffffffffffffffffffffffffffffffffff168373ffffffffffffffffffffffffffffffffffffffff1603610833576040517f08c379a000000000000000000000000000000000000000000000000000000000815260040161082a90610cfa565b60405180910390fd5b60028260ff16111561087a576040517f08c379a000000000000000000000000000000000000000000000000000000000815260040161087190610e6f565b60405180910390fd5b816000808573ffffffffffffffffffffffffffffffffffffffff1673ffffffffffffffffffffffffffffffffffffffff16815260200190815260200160002060020160006101000a81548160ff021916908360ff1602179055508273ffffffffffffffffffffffffffffffffffffffff167fe27b921f86c79235d1dc3010f493a15ea28b30cbb26a6062d2bbf67a39fe7cf88360405161091a9190610bf0565b60405180910390a2505050565b60008060008373ffffffffffffffffffffffffffffffffffffffff1673ffffffffffffffffffffffffffffffffffffffff16815260200190815260200160002060020160009054906101000a900460ff169050919050565b6040518060600160405280600073ffffffffffffffffffffffffffffffffffffffff16815260200160008152602001600060ff1681525090565b600080fd5b600073ffffffffffffffffffffffffffffffffffffffff82169050919050565b60006109e9826109be565b9050919050565b6109f9816109de565b8114610a0457600080fd5b50565b600081359050610a16816109f0565b92915050565b600060208284031215610a3257610a316109b9565b5b6000610a4084828501610a07565b91505092915050565b610a52816109de565b82525050565b6000819050919050565b610a6b81610a58565b82525050565b600060ff82169050919050565b610a8781610a71565b82525050565b606082016000820151610aa36000850182610a49565b506020820151610ab66020850182610a62565b506040820151610ac96040850182610a7e565b50505050565b6000606082019050610ae46000830184610a8d565b92915050565b610af3816109de565b82525050565b610b0281610a58565b82525050565b610b1181610a71565b82525050565b6000606082019050610b2c6000830186610aea565b610b396020830185610af9565b610b466040830184610b08565b949350505050565b6000602082019050610b636000830184610aea565b92915050565b6000602082019050610b7e6000830184610af9565b92915050565b610b8d81610a71565b8114610b9857600080fd5b50565b600081359050610baa81610b84565b92915050565b60008060408385031215610bc757610bc66109b9565b5b6000610bd585828601610a07565b9250506020610be685828601610b9b565b9150509250929050565b6000602082019050610c056000830184610b08565b92915050565b600082825260208201905092915050565b7f4f6e6c79206f776e6572206f722077616c6c6574206f776e65722063616e207060008201527f6572666f726d207468697320616374696f6e0000000000000000000000000000602082015250565b6000610c78603283610c0b565b9150610c8382610c1c565b604082019050919050565b60006020820190508181036000830152610ca781610c6b565b9050919050565b7f496e76616c69642077616c6c6574206164647265737300000000000000000000600082015250565b6000610ce4601683610c0b565b9150610cef82610cae565b602082019050919050565b60006020820190508181036000830152610d1381610cd7565b9050919050565b7f4e487b7100000000000000000000000000000000000000000000000000000000600052601160045260246000fd5b6000610d5482610a58565b91507fffffffffffffffffffffffffffffffffffffffffffffffffffffffffffffffff8203610d8657610d85610d1a565b5b600182019050919050565b7f4f6e6c79206f776e65722063616e20706572666f726d2074686973206163746960008201527f6f6e000000000000000000000000000000000000000000000000000000000000602082015250565b6000610ded602283610c0b565b9150610df882610d91565b604082019050919050565b60006020820190508181036000830152610e1c81610de0565b9050919050565b7f496e76616c696420726174696e672076616c7565000000000000000000000000600082015250565b6000610e59601483610c0b565b9150610e6482610e23565b602082019050919050565b60006020820190508181036000830152610e8881610e4c565b905091905056fea2646970667358221220605104706c4ae5373d7949586d3205faf30a3990e0b79a3ddf5d8efbfcc157dc64736f6c634300081c0033",
  "linkReferences": {},
  "deployedLinkReferences": {}
}